:100000000C94C00D0C94E80D0C94E80D0C94E80DC4
:100010000C94E80D0C94E80D0C94E80D0C94E80D8C
:100020000C94E80D0C949A130C94E80D0C94DE10CB
:100030000C94E80D0C94E80D0C94E80D0C94E80D6C
:100040000C94E80D0C94E80D0C94E80D0C94E80D5C
:100050000C94E80D0C94E80D0C94E80D0C94E80D4C
:100060000C94580E0C94E80D3E32423246324B321C
:100070004F32533257325C32C090604840302420B7
:1000800018100C0806040302019810A110A910B260
:1000900010BB10C310CC10D210DA10E310EC10F526
:1000A00010FE1004110D1115111E112711301136FB
:1000B000113C1145114C1154115D1166116F1177EE
:1000C00011801187118E1195119C11A311AA11B1E4
:1000D00011B811BF11C611CC11D111D711DD11E129
:1000E00011E511EA11EE11F311F711FA11FD1101E9
:1000F00012051209120D121112151218121B121FDD
:1001000012EA11231227122B122F12331237123B2D
:10011000123F12431247124B124F12531257125BE7
:10012000125F12631267126B126F1273127C1285C8
:10013000128E12921296129A129E12A212A612AA4F
:1001400012AE12B212B612BA12BE12C212C612CA3F
:1001500012CE12D212D612DA12DE12E212E6122FEA
:1001600012EA12EE12F212F612FA12FE120213063E
:1001700013EE120A130E1311131513021319131D84
:10018000132113251329132D133113351339133D5F
:10019000134113451349134D135113551359135D4F
:1001A000136113651369136D137113751379137D3F
:1001B00013811385138A138E139213021396139AC5
:1001C000139E13A213A613AA13AE13B213B613BA37
:1001D00013BE13C213C613CA13CE13D213D613DA27
:1001E00013DE13E213E613EA13EE13F213F613FA17
:1001F00013FE13021406140A140C140F1411141411
:1002000014161418141B141D142014221425140A77
:100210001427140F142A14141416142D141B14303C
:100220001420143314251436143A143B143F14418B
:10023000144314451447144B144F14531457145BB0
:10024000145F14631467146B146F14731477147BA6
:10025000147F14831487148B148F14931497149B96
:10026000149F14A314A714AB14AF14B314B714BB86
:1002700014BF14C314C714CB14CF14D314D714DB76
:1002800014DF14E214E514E814EB14EF14EA12F38B
:1002900014F7145555F5F5B5B5D5D555AB55599554
:1002A00095090949924952494919D56B6B5B5B77AE
:1002B00077FFFFB76DD1D157576F6FDF7611A9C1A7
:1002C0006F01D1000011491111494901050101498E
:1002D0005205014129410441A441410000924010CE
:1002E00010101250109090901210120C49104010E3
:1002F0004810900000494911115C5C555544441F59
:100300005F4545D5D577774264FFFF000048480137
:1003100055004910F084A44810114149145555580E
:1003200058A5627F007F0081FF81FF7F007F0081F1
:10033000FF81FF7F007F0081FF81FF7F007F0081C1
:10034000FF81FF7F0081FF7F0081FF7F0081FF7FB2
:100350000081FF7F0081FF7F0081FF7F0081FF7FA1
:100360000081FFC1FFC1FF7F00000081FF0000008E
:10037000005800000000005800CEFFA8FF00005801
:1003800000000013002C005D00FCFF2000CBFFA646
:10039000FF81FF750020009AFFCBFF6900CBFF5D56
:1003A00000CBFF58009BFF6B00A1FF5800A8FF3255
:1003B00000DAFF4100A8FF6500A1FF650081FF3F53
:1003C00000E1FF4600ACFF540090FF54009EFF7018
:1003D000009EFF3600BAFF7F00ACFF7F0090FF5405
:1003E00000ACFF00000100030007000F003F007F8A
:1003F00000FF00FF03FF0FFF3FFFFF0000010003AE
:100400000007000F003F007F00FF00FF03FF0FFF0A
:100410003FFFFF00000100030007000F003F007FC7
:1004200000FF00FF03FF0FFF3FFFFF00000100057B
:100430000007000F003F007F00FF00FF03FF0FFFDA
:100440003FFFFF0000010005000D000F003F007F8F
:1004500000FF00FF03FF0FFF3FFFFF000001000947
:100460000015002D003F007F00FF00FF03FF0FFF7E
:100470003FFFFF00000100110029002D007D007FDB
:1004800000FF00FF03FF0FFF3FFFFF00000100110F
:100490000029005500DD00FD00FF00FF03FF0FFFF6
:1004A0003FFFFF00000100210091002901AD01DDA7
:1004B00002BD03FF03FF0FFF3FFFFF0000010041EC
:1004C00000110149025505AD066D0B7D0FFF0FFFB1
:1004D0003FFFFF00000100810021029108A914558F
:1004E00015AD16DD2EFD3EFF3FFFFF0000010001B0
:1004F00001410811112929A9525555ADADDDDDFD88
:10050000FDFFFF00000100020003000400050006DB
:10051000000700080009000A000B000000000002AC
:10052000000200040005000500070007000900099B
:10053000000B00000000000200030003000500059E
:10054000000700070009000A000A0000000100017E
:100550000003000300050005000700080008000A6A
:10056000000A00000000000200020004000400066F
:100570000007000700090009000B0000000000024E
:100580000002000400050005000700070009000A3A
:10059000000A00000000000200030003000500053F
:1005A000000700080008000A000A0000000100011E
:1005B0000003000300050006000600080008000A0A
:1005C000000A00000000000300030004000400070C
:1005D000000700070009000A000A000000000003ED
:1005E000000300030005000600070007000A000AD8
:1005F000000A0000000000020002000400040007DE
:1006000000070007000900090009000000000003BE
:10061000000300030005000500070007000A000AA8
:10062000000A0000000100010004000400050005AC
:10063000000700080008000B000B0000000100018B
:100640000004000400040006000700080008000B76
:10065000000B00000001000100030003000500057D
:1006600000070007000A000A000B0000000100015B
:100670000003000300060006000700080008000B46
:10068000000B00000000000200020004000500054D
:10069000000500090009000A000B0000000000022C
:1006A0000002000500050005000700070009000919
:1006B000000900000000000300030003000500051E
:1006C000000800080008000A000A000000000003FB
:1006D0000003000400040006000600080008000AE9
:1006E000000A0000000100010003000400050005ED
:1006F000000700080008000A000A000000010001CD
:1007000000010005000500050007000800080008BA
:1007100000080000000100010003000300030007BF
:1007200000070008000800080008000000000002A0
:100730000002000400040006000600080008000A89
:10074000000A00AA00E3005501C701AA028E0300B7
:100750000455051C070008AA0A001055150020AA18
:100760002A004055550080FFFF9302C30223034334
:100770000363038303A303C303E30303051B0533DD
:10078000054B0563057B059305AB05C305DB05F349
:10079000050B0623063B0653066B06830633059BB3
:1007A00006B306CB06E306FB0613072B0743071029
:1007B000101016090909061010101602020207107F
:1007C0001010160902040F10101016010201061075
:1007D000101012040A0F0210101017040601061060
:1007E0001010130407050702030302020E1E0C007B
:1007F00000001C14141700000103070F1F1F000046
:10080000000E1511110E000105090D1115191D21FC
:1008100025292C3034383C4044484C5054585C60B6
:1008200064686C7074787C8083878B8F93979B9FB0
:10083000A3A7ABAFB3B7BBBFC3C7CBCFD3D6DADEAB
:10084000E2E6EAEEF2F6FAFEFAF6F2EEEAE6E2DEC8
:10085000DAD6D3CFCBC7C3BFBBB7B3AFABA7A39FCA
:100860009B97938F8B8783807C7874706C686460AF
:100870005C5854504C4844403C3834302C29252195
:100880001D1915110D090501FEFEFEFEFEFEFEFE00
:10089000FEFEFEFEFEFEFEFEFEFEFEFEFEFEFEFE78
:1008A000FEFEFEFEFEFEFEFEFEFEFEFEFEFEFEFE68
:1008B000FEFEFEFEFEFEFEFEFEFEFEFEFEFEFEFE58
:1008C000FEFEFEFEFEFEFEFE010101010101010130
:1008D0000101010101010101010101010101010108
:1008E00001010101010101010101010101010101F8
:1008F00001010101010101010101010101010101E8
:100900000101010101010101FE01030507090B0DB0
:100910000F11131517191B1D1F21232527292B2DF7
:100920002F31333537393B3D3F41434547494B4DE7
:100930004F51535557595B5D5F61636567696B6DD7
:100940006F71737577797B7D7F80828486888A8CCE
:100950008E90929496989A9C9EA0A2A4A6A8AAACC7
:10096000AEB0B2B4B6B8BABCBEC0C2C4C6C8CACCB7
:10097000CED0D2D4D6D8DADCDEE0E2E4E6E8EAECA7
:10098000EEF0F2F4F6F8FAFCFE0180868C92989E66
:10099000A4AAB0B6BBC1C6CBD0D4D9DDE1E5E9ECA1
:1009A000EFF2F4F7F9FAFCFDFDFEFEFEFDFDFCFAA8
:1009B000F9F7F4F2EFECE9E5E1DDD9D4D0CBC6C12B
:1009C000BBB6B0AAA49E98928C868079736D67613D
:1009D0005B554F49443E39342F2B26221E1A1613DD
:1009E000100D0B08060503020201010102020305B6
:1009F00006080B0D1013161A1E22262B2F34393E13
:100A000044494F555B61676D737980808A949DA7D7
:100A1000B1BAC2CBD2DAE0E6ECF1F5F8FBFCFEFEAF
:100A2000FEFDFBF9F6F3EFEAE6E0DBD5CFC9C3BD87
:100A3000B6B0AAA49F99948F8B8783807D7B7978A9
:100A400077767676767778797B7C7E8081838486EC
:100A500087888989898988878684827F7C78747071
:100A60006B66605B554F49423C36302A241F19158E
:100A7000100C090604020101010304070A0E1319F0
:100A80001F252D343D454E58626B7580808F9EAC7E
:100A9000BAC7D3DEE7EFF5FAFDFEFEFCF9F4EFE8A6
:100AA000E1D9D1C9C2BAB3ADA8A3A09E9E9EA0A30E
:100AB000A8ADB3BAC2C9D1D9E1E8EFF4F9FCFEFEA2
:100AC000FDFAF5EFE7DED3C7BAAC9E8F80706153B5
:100AD00045382C2118100A0502010103060B1017D6
:100AE0001E262E363D454C52575C5F6161615F5C4E
:100AF00057524C453D362E261E17100B060301019A
:100B000002050A1018212C38455361708080909F8F
:100B1000ADB9C3C9CCCCC9C4BCB3A9A0978F8A87CF
:100B2000878A9099A4B0BECCD9E5F0F7FCFEFCF71B
:100B3000F0E5D9CCBEB0A499908A87878A8F97A018
:100B4000A9B3BCC4C9CCCCC9C3B9AD9F90806F60F8
:100B500052463C363333363B434C565F68707578AB
:100B600078756F665B4F4133261A0F08030103083F
:100B70000F1A2633414F5B666F7578787570685F22
:100B8000564C433B363333363C4652606F8001014E
:100B9000010305080D131B25313E4D5D6E8091A3A9
:100BA000B4C4D3E0EBF3FAFDFEFCF8F1E7DCCEBF12
:100BB000B09F8E7D6C5C4C3E31251B130C060201F0
:100BC0000101010101010101010101010101010115
:100BD00001010202030304050607070605030101DC
:100BE00001010101010101010101010101010101F5
:100BF00001010101010101010101010101010101E5
:100C000001010101010101010101010101010101D4
:100C100001020509111B293A4D637A92A9BFD3E459
:100C2000F1FAFEFEF9F0E3D4C4B2A192857B7472AE
:100C3000747B8592A1B2C4D4E3F0F9FEFEFAF1E42C
:100C4000D3BFA9927A634D3A291B1109050201010C
:100C50000101010101010101010101010101010184
:100C60000101010101010101010101010101010174
:100C70000101010101010101010101010101010164
:100C80000101010101010101010101010101010154
:100C90003F39332D27211B150F090301070D1319A8
:100CA0001F252B31373D43494F555B61676D737984
:100CB00080868C92989EA4AAB0B6BCC2C8CED4DA64
:100CC000E0E6ECF2F8FEFCF6F0EAE4DED8D2CCC6C0
:100CD000C0C6CCD2D8DEE4EAF0F6FCFEF8F2ECE6D0
:100CE000E0DAD4CEC8C2BCB6B0AAA49E98928C86D4
:100CF0008079736D67615B554F49433D37312B25D3
:100D00001F19130D070103090F151B21272D333957
:100D10003F80787068605850484038302921191158
:100D2000090109111921293038404850586068706C
:100D30007880878F979FA7AFB7BFC7CFD6DEE6EE85
:100D4000F6FEF6EEE6DED6CFC7BFB7AFA79F978F0A
:100D50008780878F979FA7AFB7BFC7CFD6DEE6EE56
:100D6000F6FEF6EEE6DED6CFC7BFB7AFA79F978FEA
:100D700087807870686058504840383029211911B0
:100D8000090109111921293038404850586068700C
:100D90007880010203030405060708090A0B0C0EFC
:100DA0000F1012131517181A1C1E20222426292B87
:100DB0002E3134373A3D4044484C5054585D6267B8
:100DC0006C71777D838A91989FA7AFB7C0C9D3DD37
:100DD000E8F3FEF3E8DDD3C9C0B7AFA79F98918AC7
:100DE000837D77716C67625D5854504C4844403D38
:100DF0003A3734312E2B29262422201E1C1A18178C
:100E0000151312100F0E0C0B0A0908070605040330
:100E1000030201010C16202930383E444A4F545831
:100E20005C606366696C6E7072747677787A7B7CCE
:100E30007D7E7F808081828384858788898B8D8F6A
:100E4000919396999C9FA3A7ABB0B5BBC1C7CFD6D2
:100E5000DFE9F3FEF3E9DFD6CFC7C1BBB5B0ABA77F
:100E6000A39F9C999693918F8D8B89888785848386
:100E7000828180807F7E7D7C7B7A787776747270C9
:100E80006E6C696663605C58544F4A443E38302942
:100E900020160C01E5CDB8A4938274665A4F453CE8
:100EA000332C26201A16120E0B0907050402020124
:100EB00001010102020304050608090B0D0E1012C0
:100EC0001416191B1D1F222427292C2E31333639C5
:100ED0003B3E414446494C4F5254575A5D6063660D
:100EE000686B6E7174777A7D808285888B8E919421
:100EF000979A9DA0A3A6A9ABAEB1B4B7BABDC0C323
:100F0000C6C9CCCFD2D5D8DBDEE1E3E6E9ECEFF21F
:100F1000F5F8FBFEE51426364553606C77828B941A
:100F20009CA3AAB1B7BCC1C6CACED2D5D9DCDEE17A
:100F3000E3E5E7E9EBECEEEFF0F2F3F4F5F5F6F7C5
:100F4000F8F8F9F9FAFAFBFBFBFCFCFCFDFDFDFDF2
:100F5000FDFEFEFEFEEBD9C9BAAC9F93887D746B93
:100F6000635C554E48433E3935312D2A2623211ED8
:100F70001C1A1816141311100F0D0C0B0A0A09086D
:100F80000707060605050404040303030202020220
:100F9000020101010114FEE6BD8B582D0F01021163
:100FA0002946637C8E989994897B6E625B58595E62
:100FB000666F7981878B8C8B898683818080818322
:100FC000878A8E919496979898989999999A9C9DCA
:100FD0009FA1A3A5A7A8AAABACADAEAFB0B1B3B467
:100FE000B6B7B9BABCBDBEC0C1C2C3C5C6C7C8CA00
:100FF000CBCDCECFD1D2D3D5D6D7D9DADBDDDEDF9C
:10100000E1E2E3E5E6E7E9EAEBEDEEEFF1F2F3F535
:10101000F6F7F9FAFBFDFE43557398BDDDF3FEFECE
:10102000F4E4D0BDACA09A9A9FA8B2BDC6CCCFCFF5
:10103000CDC8C2BDB8B5B3B3B4B7BABDBFC1C2C2E3
:10104000C1C0BEBDBBBABABABABBBCBDBEBEBEBED5
:10105000BEBEBDBDBCBCBCBCAA8C6742220C01019B
:101060000B1B2F42535F656560574D42393330305B
:1010700032373D42474A4C4C4B484542403E3D3D4D
:101080003E3F41424445454545444342414141413B
:10109000414142424343434373796E636C746368D6
:1010A00000706F6C79736571006172706567676954
:1010B0006F0062706D20636E7472006363206B6EEC
:1010C0006F620063686F72646D656D00636C6F635F
:1010D0006B00646976696465720063686E66696C4A
:1010E00074720063686E6D65726772007573657205
:1010F0002070726700646973706174636800647261
:10110000756D73006561722067616D65006D6F6E4E
:1011100069746F720072616E646F6D697A00636FDB
:101120006E74726C6C720073706C697474657200AA
:1011300064656C6179007363616C650073657175DA
:10114000656E6372006363206C666F0074616E701D
:101150007572610073657474696E6773006E6F7485
:10116000656E756B65007379737864756D700021B9
:1011700072657365742100A5207A312E3320A50095
:10118000736E644F666600727374437472006E6FA0
:10119000744F6666006F6D6E4F6666006F6D6E69A8
:1011A0004F6E006D6F6E6F4F6E00706F6C794F6E8B
:1011B00000737973782E2E002E737973782E002E9B
:1011C0002E737973780073746172740073746F7026
:1011D00000636F6E742E0072657365740063686ED1
:1011E00000616C6C007265737400746965006578E9
:1011F0006974006F6666006F6E006E6F00796573CC
:1012000000784645006C657400666C7400686C6418
:10121000002E357300317300327300726563006411
:1012200075620072756E0062706D006772760061A3
:101230006D74007461700073776700736866007086
:101240007368006C61670068756D006D6E6B007689
:10125000616C006E756D0074797000636323006EBD
:101260007270006D696E006D6178006C766C007252
:10127000737400736F7272792E2E2E007065726611
:1012800065637421006E6F742062616421006D6F6C
:10129000640070746E0065756300696E7400657833
:1012A0007400636C6B007074310070743200707481
:1012B000330070743400636331006363320063632E
:1012C0003300636334006363350063633600636334
:1012D000370063633800696E70006F757400737057
:1012E0006C006C6F7700757070006E6F74007665BF
:1012F0006C00236331002363320063796300706FF5
:101300006C00726E640073746B00646972007570B7
:101310000064776E00752664006F637400647572F4
:10132000006C6174006469760064656E00342F316E
:1013300000332F3100322F3100332F3200312F3163
:1013400000332F3400322F3300312F3200332F3847
:1013500000312F3300312F3400312F3600312F3838
:10136000002F3132002F3136002F3234002F33322C
:10137000002F3438002F3936007265700074727394
:101380000064706C006F66665F006D697200616C6E
:10139000740074726B00726F6F0073636C00766F11
:1013A000690068726D0063687200696F6E00646F37
:1013B0007200706872006C7964006D697800616514
:1013C0006F006C6F6300626D6A00626D6E00706D1D
:1013D0006A00706D6E0062687200736872007275E8
:1013E0007000746F6400726167006B6161006D650D
:1013F00067006D6C6B0064706B00666C6B006A61FB
:10140000700067616D0077686C00430043230044FF
:1014100000442300450046004623004700472300C0
:1014200041004123004200446200456200476200DF
:101430004162004262006B657900007374700001C4
:1014400000020003000400616D3100616D32006133
:101450006D3300616D340063653100636532006394
:101460006533006365340077663100776632007754
:101470006633007766340072743100727432007221
:1014800074330072743400737931007379320073ED
:101490007933007379340074726900737172007269
:1014A0006D700073696E0073693200736933007385
:1014B0006935006767310067673200627431006226
:1014C00074320073703100737032006C7031006CD4
:1014D00070320072733100727332007326680070CC
:1014E00061006D61006E6900736100726573006672
:1014F0007265006368640070726700F0002102008A
:1015000003204343232044442320452046462320F0
:10151000474723204141232042002D3031323334CC
:101520003536373800EF1E000000000000000000D4
:1015300000000000000000000000000000000000AB
:10154000000000A41F000000000000F91E4A1F0058
:1015500000141F00000000000000000100F0033A2A
:1015600005000000012E22D121B12100000000A2BF
:1015700020000000000000A71FA621FF1FDE1FECB7
:101580002000000000172298210000000000000049
:101590000000000000B620000000000B00D0003D5D
:1015A00005A515020000780000000001000C0E00E7
:1015B0008424000000000000000000000000000083
:1015C000000000008A22BC22EE22D5220000642402
:1015D000000000000000722307230000FC2300002D
:1015E00000000000000000000000000000000301F7
:1015F00021250000000000000000000000000000A5
:1016000000000000000000000000000000000000DA
:101610001E25000000000000000000000000000087
:10162000B12493240000060018005C053016040164
:101630003F000007007F0E26C225A3258425000059
:10164000000000000000000000000000000000009A
:101650000000000000000326000000000000F82544
:101660000000000000000000000000000C009000DE
:1016700062057616050100043C3F434630303030A9
:1016800030302726000000000000000000000000AD
:10169000000000000000000000000000000000004A
:1016A00015260000000000000000000000000000FF
:1016B0000000000000000000010040026E05C2169C
:1016C00007010117270000000000000000000000D3
:1016D00000000000000000000061265E2670260069
:1016E0000077260000732600003726AB2600000096
:1016F00000000088262E260000040010007005035C
:10170000170601007800007E27000000000000009E
:1017100000000000000000000000000000000000C9
:10172000000000000000004427000000000000004E
:10173000000000000000000000000000000300C0E6
:1017400000790547170901000300A12700000000E8
:101750000000000000000000000000000000000089
:10176000000000000000000000009E2700000000B4
:1017700000000000912700000000000000000000B1
:10178000090050007C058A17100100070A4A4749E2
:1017900050485BC62864285928000000000000005B
:1017A00000000000000000B828BE27B727C52700AA
:1017B000000000C328AE2800000000000000000068
:1017C000000000CC27000000000A0000018605E3AD
:1017D0001712001F3C5770869BAEBFCEDBE6EFF6BC
:1017E000FBFDFF007800000008040A0000412AA267
:1017F000298B297E29000000000000000000000065
:10180000000000000000000000000000000E2A00A0
:1018100000000000000000000000000000000000C8
:101820000000000400B00091052D180B010000001D
:1018300003752CC12BB92B00000000000000000034
:101840000000000000A02B672A602AAA2A000000DE
:1018500000672CAB2B00000000000000000000001F
:1018600000782A000000000A00400097057D180C4F
:101870000100010203040506080A0C0E100000789E
:1018800000000924282A38E32C0000000000000092
:101890000000000000000000000000000000000048
:1018A00000000000000000CE2C000000000000003E
:1018B00000000000000000000000000000100020F8
:1018C00002C205C718080101000000000000000066
:1018D00000000000000000F82E00000000000000E2
:1018E00000000000000000000000000000000000F8
:1018F000000000000000006C2D000000000000004F
:1019000000000000000000E72E000000000100447D
:1019100002120617190A0100863019301130000032
:10192000000000000000000000000000A12FE72FD1
:10193000042FFC2F00000000833003300000000063
:1019400000000000000000003830000000001F0010
:101950000002130658191501000078000010000756
:101960003F3F0002000A003F0004004A003F00021F
:101970000047003F000400E032BE329F327A3299C5
:10198000312C32763151310532000024310032FBE6
:1019900031F631F230E33100000000000000001E9B
:1019A000310000083110310000000000000100008B
:1019B000004406B7190E0100C53490347D347534E7
:1019C0000000000000000000000000000000000017
:1019D0000000000000000000B33400000000000020
:1019E00000000000000000000000000000000600F1
:1019F00010014606F819130100000100F40001353A
:101A000000000000000000000000000000000000D6
:101A1000000000000000000000000000FE34000094
:101A200000000000000000000000000000000000B6
:101A3000000000000200F40350063E1A17000002E6
:101A40000000B5372D36AC35000000007E360000B2
:101A5000A43600000000A135F635EF351836000039
:101A60000000A7371F360000F336CB3600000C37D6
:101A700000005D3700000000870020015206821A36
:101A800014010000007800000C000830FF30FF3C1B
:101A9000FF3CFF003B380000000000000000000099
:101AA0000000000000000000000000000000000036
:101AB00000000000FA3700000000000000000000F5
:101AC0000000000000000000000004008000E006AC
:101AD000D41A110100300001143900000000000088
:101AE000000000000000000000005438D9385C38C5
:101AF0005838643800001139000000000000000070
:101B0000673800007C380000000000000000020080
:101B10000A00E406181B00010408363A36390000B2
:101B200000000000000000000000000000009F39DD
:101B3000D7392F39053A00000000333ADE3900006A
:101B4000000000000000000000000C3A000000004F
:101B500008003000E906661B1601050000000001C0
:101B60000102FBF9FF0000007808003C0005810E2F
:101B7000FD0E0110D0106811FA1465155A19E01EF7
:101B800011241FBECFEFD8E0DEBFCDBF11E0A0E033
:101B9000B1E0E8E5F7E702C005900D92A033B10788
:101BA000D9F718E0A0E3B1E001C01D92AC38B1074D
:101BB000E1F71BE1C0E8DBE104C02297FE010E94CF
:101BC000A63BCE36D107C9F70E94FF110C948D3A7F
:101BD0000C9400000F931F93CF93DF938C01EB01C4
:101BE00060E070E0AE010E94A83A009719F0EC01A5
:101BF000C01BD10BCE01DF91CF911F910F910895A2
:101C00001F93CF93DF93EC01162F70E00E94EA0D33
:101C1000982F06C0FE01E90FF11D80E280839F5FCF
:101C20009117C0F3DF91CF911F910895EF92FF922A
:101C30000F931F93CF93DF93EC01F62EE42E062F24
:101C400010E0B8010E94EA0D282F8F15D1F0DE01B7
:101C5000A00FB11F1297E82FF0E03197EC0FFD1F96
:101C600090E00DC0921728F4808111968C93119703
:101C700003C01196EC9211979F5F119731979F15B2
:101C800088F3CDB7DEB7E6E00C94953B40E20E94C6
:101C9000160E08958FB7F8942091300130913101DC
:101CA00040913201509133018FBFB901CA010895AB
:101CB0001F920F920FB60F9211242F933F934F93C1
:101CC0005F936F937F938F939F93AF93BF93EF93A4
:101CD000FF93E0913501F0913601309709F00995B5
:101CE000FF91EF91BF91AF919F918F917F916F91F4
:101CF0005F914F913F912F910F900FBE0F901F90CA
:101D000018950895982F2B9A8091C00085FFFCCFDD
:101D10009093C6000895382F2091F40619C0809141
:101D2000770190917801891B8F77C9F380917801B1
:101D3000E82FF0E0EB50F94FE0818F5F8F778093D1
:101D400078018091C00085FFFCCFE093C60022E2BD
:101D500080917801909177018150891B8F7783174B
:101D6000F0F22093F406089586E10895282F8091DB
:101D70007801909177018150891B8F77C1F3809111
:101D80007701E82FF0E0EB50F94F20838F5F8F77DA
:101D90008093770108950F931F93CF93DF93182FAC
:101DA000EB01042F842F0E948B0E812F0E94B60E10
:101DB000002341F088810E94B60E013019F089811C
:101DC0000E94B60EDF91CF911F910F910895FF925F
:101DD0000F931F93182F062FF42E83E00E948B0E73
:101DE000812F0E94B60E802F0E94B60E8F2D0E946A
:101DF000B60E1F910F91FF90089508951F93CF93F2
:101E0000DF93182FE0916E0325C0CE2FD0E0FE01A6
:101E1000EE0FFF1FEE0FFF1FEC0FFD1FE455FE4FEF
:101E200082818823C9F460816E3F51F0418144234F
:101E300019F4812F806802C0812F80690E94E70E0B
:101E4000FE01EE0FFF1FEE0FFF1FEC0FFD1FE4550D
:101E5000FE4FE381EE23C9F60E940210DF91CF917D
:101E60001F9108951F93182F03C0812F0E94FE0E0B
:101E70008091AB018823C9F71F9108950E946010DB
:101E80000895E82FF0E0EE0FFF1FED5FFE4F608139
:101E9000718187E391E040E450E00E94903A089518
:101EA00020916F0130917001E0917101F091720108
:101EB000E80FF91F820F931F60810E94DE3A089598
:101EC00060916F017091700140916D0150916E01B0
:101ED00080917101909172010E94BC3A08950E9414
:101EE000600FE0915D01F0915E01309711F080E0AC
:101EF0000995E0913701F0913801309709F0099583
:101F0000089560916F017091700140916D01509141
:101F10006E0180917101909172010E94D43A0895EE
:101F2000609173017091740140916D0150916E0147
:101F300080917101909172010E94903A0E94810FEC
:101F40000895A0E0B0E0E7EAFFE00C946F3BD62EE6
:101F5000C42EE22EA0E0B0E0BC01CD012AE030E0CA
:101F600040E050E00E94EC3A9B01AC012D0D311D88
:101F7000411D511D64E975E387E790E00E944B3BEA
:101F800049015A01089481089108A108B108DD248B
:101F9000CC0CDD1C8DE697E0C80ED91EFF2400E0B6
:101FA00010E0C501B401A80197010E94EC3A2B0191
:101FB0003C01C0E0D0E0F601259134912C0F3D1F8B
:101FC000F90165917491882777FD8095982F8E018E
:101FD00002581E4FA30192010E94EC3ABC019927BE
:101FE00077FD9095892F680D791DF80171836083C5
:101FF0002296C032D105F9F6CDB7DEB7E0E10C94F8
:102000008B3B08953091AB0120916E0304C08FEF9C
:1020100080832381392F822F90E0FC01EE0FFF1F78
:10202000EE0FFF1FE80FF91FE455FE4F8281882352
:1020300029F03093AB0120936E0318C0932F915079
:10204000222329F73093AB0110926E030895822F5B
:1020500090E0FC01EE0FFF1FEE0FFF1FE80FF91FCE
:10206000E455FE4F8281815082832381222379F7B8
:102070000895482FE0916E0390E01EC02E2F30E0AF
:10208000F901EE0FFF1FEE0FFF1FE20FF31FE455E4
:10209000FE4F8081841731F48181861719F48EEF09
:1020A00080839F5FF901EE0FFF1FEE0FFF1FE20F0E
:1020B000F31FE455FE4FE381EE2301F7892F0895C6
:1020C000982FE1EBF1E071E080818F3F29F07F5F95
:1020D00035967A35C9F708958091AB018F5F80936B
:1020E000AB01A72FB0E0FD01EE0FFF1FEE0FFF1FAA
:1020F000EA0FFB1FE455FE4F9083618342832483E4
:1021000050916E03552371F0852F90E0FC01EE0F86
:10211000FF1FEE0FFF1FE80FF91FE455FE4F8281EE
:10212000481768F4FD01EE0FFF1FEE0FFF1FEA0FC7
:10213000FB1FE455FE4F538370936E030895252FC4
:1021400030E0F901EE0FFF1FEE0FFF1FE20FF31F4C
:10215000E455FE4F5381552371F0852F90E0FC012B
:10216000EE0FFF1FEE0FFF1FE80FF91FE455FE4FA4
:102170008281481720F7FD01EE0FFF1FEE0FFF1FB2
:10218000EA0FFB1FE455FE4F5383F901EE0FFF1FCB
:10219000EE0FFF1FE20FF31FE455FE4F7383089508
:1021A00008958CEA91E06FEF70E042EC51E00E94FC
:1021B000B53A10926E031092AB0108951F920F92E0
:1021C0000FB60F9211242F933F934F935F936F930A
:1021D0007F938F939F93AF93BF93EF93FF938091E0
:1021E0009E0190919F010196A0E0B0E020917A01BC
:1021F00030917B0140917C0150917D01280F391F66
:102200004A1F5B1F20937A0130937B0140937C012E
:1022100050937D018091A0018F5F8093A001863053
:10222000C1F41092A0018091A1018F5F8093A10160
:10223000803111F41092A101E091A101F0E0EE0FC4
:10224000FF1FE258FE4F8081918190939F01809300
:102250009E0180919E0190919F01909389008093AF
:1022600088009695879590938B0080938A00809143
:1022700079018823E1F080917601882341F0E09193
:102280005901F0915A01309739F0099505C08091B4
:1022900075038F5F809375038091A001882339F4C3
:1022A000E0915B01F0915C01309709F00995FF9195
:1022B000EF91BF91AF919F918F917F916F915F91BE
:1022C0004F913F912F910F900FBE0F901F90189537
:1022D00010926F03109273031092740308951F936A
:1022E00078941092C100239A259A0E94FB140E94B0
:1022F000D1100E94B40E81500E94410F0E94600FC5
:1023000080E00E94410F0E946F0FE0916901F091FF
:102310006A01309721F080E00995182F05C0E091FF
:102320007101F091720110810E94B40E181780F0B3
:10233000E0916701F0916801309721F080E060E062
:10234000099505C0E0917101F0917201108210E0D1
:10235000812F0E94410F0E94B11988E790E060E050
:1023600040E020E00E94A10F1092A0011092A10174
:102370001092790180918100887F81608093810033
:10238000109280008BE0809381008EE699E190931B
:1023900089008093880087EB9CE090938B0080936A
:1023A0008A0080916F00826080936F008091B100FD
:1023B000887F82608093B1008091B0008C7F8160C3
:1023C0008093B000809170008160809370000E94C3
:1023D0006F0F8091C0008D7F8093C0001092C50068
:1023E00087E28093C4008091C10088608093C1001F
:1023F0008091C10080618093C1001F91089584B7CE
:1024000014BE80916000886180936000109260002B
:102410000E946F110E94281BFDCF1F93182FE0917F
:102420004701F0914801309709F0099580915501D5
:1024300090915601892B19F4812F0E94820E1F91D1
:102440000895A1E0B0E0E7E2F2E10C94793B7C0171
:10245000962F162F107F062F0F70103F09F4F9C02A
:10246000E0915301F0915401309709F4F2C0802FAC
:10247000698309959981882309F0EBC0D7011496E7
:102480004C91E0915701F0915801309709F4E5C063
:102490000894E11CF11C892FB70120E00995DDC0EB
:1024A000973F71F0F7014481E0915701F091580195
:1024B000309731F0B7016F5F7F4F892F21E0099589
:1024C000103B09F445C0113B40F4103909F1103AB2
:1024D000A1F1103809F0C1C010C0103D09F452C07C
:1024E000113D20F4103C09F0B8C045C0103E09F47D
:1024F00056C0103F09F0B1C067C0D70111966C916A
:10250000119712964C91E0913B01F0913C012EC045
:10251000F70142816181442329F0E0913901F09172
:102520003A0124C0E0913B01F0913C01309709F45D
:1025300094C0802F40E0099590C0D70111966C910E
:10254000119712964C91E0913D01F0913E010EC021
:10255000F7016181862F8857883008F47EC0D70143
:1025600012964C91E0914101F0914201309709F4AB
:1025700074C0802FE0CFF7016181E0914301F091B9
:10258000440107C0D70111966C91E0913F01F09191
:102590004001309709F461C0802F09955EC0F701B2
:1025A00062814181E0914501F0914601309709F443
:1025B00054C070E07695762F662777956795640FFF
:1025C000711D802F099549C0083061F1093030F440
:1025D000002359F0023009F040C011C00B3061F106
:1025E0000C3079F10A30C9F522C0D70111961C913F
:1025F000812F0E940D12812F0E94AD162EC0F7016F
:1026000082814181E0914901F0914A01309729F19D
:1026100090E09695982F882797958795840F911D20
:1026200009951BC0E0914B01F0914C010EC0E09167
:102630004D01F0914E0109C0E0914F01F091500120
:1026400004C0E0915101F0915201309731F00995A9
:1026500004C0903F09F024CF33CF2196E6E00C94DC
:10266000953B1F93CF93DF93EC01162FE09155011B
:10267000F0915601309711F0862F0995183F28F0F8
:10268000CE01612F0E94211251C017FF3AC01C8257
:1026900081E08D83812F807F803AA1F0813A28F4F8
:1026A000803881F08039A1F40DC0803E59F0803F20
:1026B00019F0803B69F406C0912F9F70892F8150DB
:1026C000823018F482E08D8303C0943008F01D82BC
:1026D000173F59F48881803F31F487EF0E940D1233
:1026E00087EF0E94AD16188213C0103F41F4188383
:1026F00080EF0E940D1280EF0E94AD1609C0188372
:1027000007C08C81FE01E80FF11D11838F5F8C8360
:102710009C818D81981750F0CE0168810E94211212
:102720001C828881813F10F01D821882DF91CF9139
:102730001F91089578941F920F920FB60F92112453
:102740002F933F934F935F936F937F938F939F93B9
:10275000AF93BF93EF93FF938091C00087FF0DC0AD
:102760006091C6006E3F21F480915006882329F4C1
:102770002D9A8FE693E00E9431138091770190911A
:102780007801891B8F77D9F08091C00085FF17C031
:102790002B9A80917801E82FF0E0EB50F94F90816F
:1027A0008F5F8F77809378019093C60008C08091E7
:1027B0007503815080937503309729F00995E09156
:1027C0005901F0915A0180917503882381F7809116
:1027D00076038F5F83708093760380FD2EC00E9406
:1027E000181D8091760390E083709070892B29F5F5
:1027F00090913401892F8A59809334018D37D8F014
:10280000975190933401809130019091310101965C
:10281000909331018093300180913001909131018A
:10282000892B49F480913201909133010196909364
:102830003301809332012B982D98FF91EF91BF9136
:10284000AF919F918F917F916F915F914F913F9148
:102850002F910F900FBE0F901F901895382F409119
:10286000AB0320E012C0842F90E0DC01AA0FBB1F55
:10287000A80FB91FA858BC4F8C91831719F42223B5
:1028800039F418C0242F12964C91442361F708950F
:10289000822F90E0FC01EE0FFF1FE80FF91FE858B0
:1028A000FC4F12968C91828330917703ECEAF3E02F
:1028B00090E019C012968C918093AB03F5CF819173
:1028C000841781F4292F05C0E455FC4F8181808352
:1028D0002F5FE22FF0E0832F90E00197E817F907D0
:1028E0009CF303C09F5F931750F3842F90E0FC018B
:1028F000EE0FFF1FE80FF91FE858FC4F12828FEF11
:102900008083118231503093770308950F931F9382
:10291000182F062F0E942E14809177038031C1F466
:10292000EDE7F3E021E030E08081882349F4F9010C
:10293000EE0FFF1FE20FF31FE858FC4F808106C027
:102940002F5F3F4F33962131310571F70E942E14CE
:10295000EBE7F3E091E080818F3F09F4592F9F5F0F
:1029600033969131C1F7852F90E0FC01EE0FFF1FE8
:10297000E80FF91FE858FC4F8091AB038283108366
:1029800001835093AB034091770320E030E022C0F5
:10299000D901F901E455FC4F808190E0FC01EE0F74
:1029A000FF1FE80FF91FE858FC4F80812F5F3F4F52
:1029B000181780F4942F08C0E92FF0E0E455FC4F7D
:1029C00082913196808391506917B0F3A455BC4F22
:1029D0005C930AC0622F2417D8F2552329F0E42F04
:1029E000F0E0E455FC4F50834F5F409377031F9115
:1029F0000F9108950895CF93DF9310927703ABE77B
:102A0000B3E080E3ED0119928A95E9F780E1EDEA00
:102A1000F3E0EF0119928A95E9F71092AB03FD01FB
:102A200033978FEF8083339683E0EB3AF807C9F74B
:102A3000DF91CF910895282F6CE0822F0E940B3BED
:102A40000895482FE82FF0E0262F332727FD3095F3
:102A500067FF08C088279927821B930BE817F9079F
:102A60004CF007C08FE790E0821B930BE817F90743
:102A70000CF4460F842F08950F931F93162F042FE5
:102A80006C3008F01C50811B87FD845F0E941B1571
:102A9000E02FF0E0EE0FFF1FE558F84F65917491BD
:102AA000292F30E0220F331F620F731FFB01459166
:102AB00054912CE0382F329FC0011124840F810FD4
:102AC00087FD8C501F910F9108958DEB93E06FEF70
:102AD00070E040E450E00E94B53A0895109222045C
:102AE0001092210482E08093250480912704823093
:102AF000B1F0833018F48130B9F405C0813141F070
:102B0000833791F40CC08091280490E0029602C0B3
:102B100082E090E09093240480932304089510921F
:102B2000240410922304089583E0809325040895DB
:102B3000A0E0B0E0EEE9F5E10C94783BC62FD0E0E0
:102B4000209721F4C0E0D4E0C81BD90B7C0173C0EE
:102B5000CE01C132D10510F080E290E0D82EEBEF2B
:102B6000F4E194918091C00085FFFCCF9093C60062
:102B7000319685E1E130F807A1F78091C00085FF2B
:102B8000FCCF81E08093C6008091C00085FFFCCF20
:102B9000D092C600E092FD03F092FE030D2D10E0EE
:102BA0008FEF93E0B701A8010E94BC3A40E030E00B
:102BB00015C0E350FC4F2081922F92959F70809119
:102BC000C00085FFFCCF9093C6008091C00085FFB8
:102BD000FCCF320F2F702093C6004F5FE42FF0E040
:102BE0008D2D90E001968E179F071CF7932F9295DD
:102BF0009F708091C00085FFFCCF9093C6008091AC
:102C0000C00085FFFCCF3F703093C6008091C000AC
:102C100085FFFCCF87EF8093C600C01BD10BE00E71
:102C2000F11E209741F08CED95E0E4EFF1E0319753
:102C3000F1F70197D1F7209709F08ACFCDB7DEB72A
:102C4000E7E00C94943BCF92DF92EF92FF921F93B8
:102C500084E492E00E94CC3A182FE82EFF2496E0FC
:102C6000EE0CFF1C9A95E1F780E892E0E80EF91E61
:102C70008DEFC82E83E0D82EC60160E873E040E2F5
:102C800050E00E94BC3AC601B70140E250E00E9409
:102C9000D43AC60160EA73E040E250E00E94BC3AD8
:102CA00080E290E0E80EF91EC601B70140E250E074
:102CB0000E94D43A80E0612F0E94E72E1F91FF907E
:102CC000EF90DF90CF9008956091FD037091FE0327
:102CD000809127048230A9F0833020F4813009F0FC
:102CE0003BC005C0813199F18337B1F52DC04091CA
:102CF00028048FEF93E050E00E94D43A0E94600FC6
:102D0000089580E00E94410F0E946F0F6091280497
:102D1000E0916701F0916801309719F080E0099522
:102D200005C0E0917101F091720160830E94810FF2
:102D30002CE088E190E00FB6F894A89580936000AD
:102D40000FBE20936000FFCF0E9423160895CB0191
:102D5000609128040E9498150895482F803F41F4FF
:102D6000109226041092220410922104109225043D
:102D700080912504813019F1813030F0823091F159
:102D8000833009F077C063C08091210490912204C0
:102D9000FC01E550FB4EE491E41709F054C00196A4
:102DA0009093220480932104069708F463C081E085
:102DB000809325041092220410922104089580919A
:102DC000210490912204FC01E95DFB4F40830196B0
:102DD0009093220480932104029709F04BC00E9433
:102DE0006E1508952091210430912204B901769541
:102DF0006795FB01E350FC4F20FF11C04F708081AD
:102E0000482B40838091230490912404681779070C
:102E100050F480912604840F8093260404C0842FEC
:102E20008295807F80832F5F3F4F309322042093D1
:102E3000210480912304909124040196880F991F06
:102E400028173907B8F083E0809325040895473F99
:102E500071F4E0912304F0912404E350FC4F90912D
:102E600026048081981719F40E946416089585E05D
:102E7000809325040895E0916701F09168013097EF
:102E800011F009950895E0917101F0917201E80F38
:102E9000F11D60830895E0916901F0916A01309716
:102EA00011F009950895E0917101F0917201E80F18
:102EB000F11D808108950F931F93CF93DF9390911D
:102EC000E904E92FF0E0A9E2B4E0EE0FFF1FEE0FF6
:102ED000FF1F8D010E0F1F1FE80188836983AE0F4E
:102EE000BF1F12964C932B839F5F9093E9048091B0
:102EF000EA048F5F8093EA04DF91CF911F910F91D5
:102F000008953091E904E32FF0E049E254E0EE0F38
:102F1000FF1FEE0FFF1FDA01AE0FBF1F89E58C9375
:102F200087E511968C931197E40FF51F128281E0CB
:102F300013968C933F5F6091EA04E32FF0E0EE0F6D
:102F4000FF1FEE0FFF1FDA01AE0FBF1F8EE38C9342
:102F500011961C921197E40FF51F88E2828380EF8F
:102F600013968C933F5FE32FF0E0EE0FFF1FEE0F01
:102F7000FF1FDA01AE0FBF1F8FE38C9382E411961F
:102F80008C931197E40FF51F128285E013968C93B2
:102F90003F5F832F90E0880F991F880F991FFA01D8
:102FA000E80FF91F20E420831182480F591FDA012E
:102FB00012961C928FE783833F5F3093E9046C5F26
:102FC0006093EA040895EF92FF920F93CF93DF93FB
:102FD0009091E904E92FF0E0A9E2B4E0EE0FFF1FC1
:102FE000EE0FFF1F7D01EE0EFF1EE7018883698350
:102FF000AE0FBF1F12964C932B839F5F9093E904F3
:103000008091EA04800F8093EA048091EC048F5F42
:103010008093EC04DF91CF910F91FF90EF90089592
:10302000FC016F3F11F460E205C0693010F46F5C81
:1030300001C0685060830895FC01862F82958F70CF
:103040008A3010F4805D01C0895A80836F706A30C5
:1030500010F4605D01C0695A618308959C01462F98
:10306000862F6CE00E940B3B990F61E075E1FB013C
:10307000E90FF11DE491D901ED939F5F690F711D77
:10308000FB018491F9018183842F6CE00E940B3B4A
:10309000EAE1F5E1E80FF11DE4911196EC93089552
:1030A00038E020E0239FD0011124AA5CB74FE2EA68
:1030B000F1E002C08D9331968081882321F091E068
:1030C000EA3AF907B9F708951F93CF93DF939C016C
:1030D000162FEA016623C1F1009729F4FA0180E373
:1030E000819361502FC097FF06C08DE289931150E4
:1030F000309521953F4F40E0E42FF0E0E95DF74F38
:10310000C9016AE070E00E94383B80834F5FC901CB
:103110006AE070E00E94383B9B016115710561F720
:10312000942FDE0108C04150E42FF0E0E95DF74F35
:103130008081805D8D934423B1F7612F691BFE016F
:10314000E90FF11D61111082DF91CF911F91089558
:103150001F93382F162F662361F1882329F4FA0173
:1031600080E38193615023C020E0E22FF0E0E05E35
:10317000F74F832F6AE00E940B3B90832F5F832FD2
:103180000E940B3B382F882381F7622FDA0108C099
:103190002150E22FF0E0E05EF74F8081805D8D935B
:1031A0002223B1F7FA01E60FF11D161B612F611101
:1031B00010821F9108951F93CF93DF93282F162F0E
:1031C000DA01662399F1882329F4FA0180E38193D7
:1031D00061502AC087FF04C08DE28D931150219564
:1031E00030E0E32FF0E0E953F84F822F6AE00E94CD
:1031F000173B90833F5F822F6AE00E94173B282F86
:10320000882379F7632FED0108C03150E32FF0E0F8
:10321000E953F84F8081805D89933323B1F7FD0135
:10322000E60FF11D161B612F61111082DF91CF9106
:103230001F910895982F84FD5A9A8BB19295907F93
:103240008F70892B8BB95B9A88E893E10197F1F72E
:103250005B985A9888E99AE30197F1F708951F93CC
:10326000182F82958F700E941A19812F8F700E94DB
:103270001A191F910895282F8091FB049091FC0446
:103280008150891B8F73823010F480E008959091F3
:10329000FC04E92FF0E0EA57F84F822F82958F70F7
:1032A000806180832F70206121839E5F9F73909344
:1032B000FC0408951F938091CC072091CD07309195
:1032C000CE074091CF076091D007E091D107A09140
:1032D000D2071091D307B82FBF5F91E0B81708F05D
:1032E00090E0F92FF20F81E0F21708F080E0782FDC
:1032F000730F81E0731708F080E0582F540F81E0BE
:10330000541708F080E0382F360F81E0361708F0A8
:1033100080E0282F2E0F81E02E1708F080E0982FF4
:103320009A0F81E09A1708F080E0810FB093CC07E4
:10333000F093CD077093CE075093CF073093D0070B
:103340002093D1079093D2078093D3071F910895BC
:1033500082EA91E060E270E048E050E00E94B53A15
:1033600008950F931F9322982A9A8FEF80937507E1
:103370002198299A80931B082098289A80931908ED
:1033800080917A00876080937A0080917A008068CB
:1033900080937A0080910001807C8062809300019C
:1033A00010923F0880937C0080917A008064809323
:1033B0007A001092800880E4E6EDF7E0DF011D92CC
:1033C0008A95E9F780E1E6E7F7E0DF011D928A954B
:1033D000E9F7529A539A8AB1806F8AB95A985B98E2
:1033E00088EE93E0E4EFF1E03197F1F70197D1F740
:1033F00083E00E941A1900E117E2C8010197F1F772
:1034000083E00E941A19C8010197F1F783E00E9436
:103410001A19C8010197F1F782E00E941A1980E297
:103420000E942F198CE00E942F1986E00E942F190C
:1034300081E00E942F1982E00E942F191092D50777
:1034400086E398E060E270E048E050E00E94B53A20
:103450008EE298E06FE370E048E050E00E94B53AF9
:103460001092D40710922508109226088FEF8093AF
:10347000170880931A08109218081092F6041092F8
:10348000E9041092EA041092EC041092EB041092FA
:10349000F5041092F8041092F7041F910F9108950B
:1034A0009B01FC01EE0FFF1FE757FF4F65917491E1
:1034B000C90150E00E94993A089590E062EA71E0F3
:1034C00048E00E94501A82EA91E068E00E94460EAD
:1034D00030E028E0329FD0011124AA5CB74FE2EA25
:1034E000F1E002C08D9331968081882321F091E034
:1034F000EA3AF907B9F70895DF92EF92FF920F9336
:103500001F93E82EF62E142FD22E82EA91E060E26D
:1035100070E048E050E00E94B53A85E0E816B1F46A
:1035200083E68093A20188E68093A3019FEFF916BA
:1035300011F480E208C088E08F1518F08F2D8F5CA1
:1035400002C08F2D88508093A40107C08E2D90E07B
:1035500062EA71E043E00E94501A82EA91E063E07F
:103560000E94460E8091A401803294F48091A301C0
:10357000803271F48F2D90E0019662E042EA51E0D2
:103580000E94641882EA91E062E040E30E94160E15
:10359000123049F1133028F4112341F0113049F56C
:1035A00019C0133019F0143021F50DC08D2D63E0D2
:1035B00046EA51E00E94A818DD2021F5133011F5EC
:1035C0008BE290E01AC08D2D63E046EA51E00E9444
:1035D000DB1818C08D2D90E0019663E046EA51E0BB
:1035E0000E9464180FC086EA91E06D2D0E942E188B
:1035F00009C0812F90E08D0D911D66EA71E043E0D6
:103600000E94501A86EA91E063E00E94460E002371
:1036100031F08BE58093A5018DE58093A90138E019
:1036200020E0239FD0011124AA5CB74FE2EAF1E029
:1036300002C08D9331968081882321F091E0EA3A8F
:10364000F907B9F71F910F91FF90EF90DF90089560
:10365000EF92FF920F931F93CF93DF9310E0F1C08F
:103660000E944A0E60931C0870931D0880931E08E8
:1036700090931F088091EB042091E9049091EC0451
:1036800001C0891B821720F0222311F09923C9F76A
:10369000C82FD0E08091F904E82FF0E0EE0FFF1F73
:1036A000E05CF74F2081F1808F5F8F718093F90488
:1036B000822F82958F70813009F080C0E0915D018A
:1036C000F0915E01309729F08F2D0995882309F03C
:1036D000B7C08091F504882309F44BC08E01000F18
:1036E000111F000F111F075D1B4FF8018181EF2C87
:1036F000FF24E7FCF094CC0FDD1F8430E1F48091CF
:10370000EB040E944B17282F332727FD30952E0DF1
:103710003F1DCC0FDD1FC55DDB4F8881682F7727EC
:1037200067FD7095F801838126173707ECF099271C
:1037300087FD909514C08091EB040E944B17970170
:10374000280F311DCC0FDD1FC55DDB4F8881682F31
:1037500070E0F80183812617370734F090E0B90153
:10376000821793070CF4BC018091EB040E943B1775
:1037700067C01091EB049091EB049F0D9093EB04C4
:103780009F3F19F41092EB0407C08091EA04981748
:1037900018F081508093EB048091EB04E0916B0171
:1037A000F0916C01309709F44BC00995813009F410
:1037B00047C0823001F71093EB0442C08230A1F57C
:1037C000F1E0FF1669F5E0915F01F091600130973B
:1037D00019F009958823A1F5CC0FDD1FCC0FDD1F53
:1037E000C75DDB4F89818F3269F41091EB04812F23
:1037F0000E944B1760E0882309F461E0812F0E944A
:103800003B1708C08091F50491E089278093F50467
:103810008823B1F48091EB0490E00E94500F10C017
:1038200080E00E94410F0CC0882351F4E0916101B7
:10383000F0916201309721F0822F8F706F2D0995E2
:1038400011E08091FA049091F904891B8F7109F0BD
:1038500007CF0E944A0E20911C0830911D08621B60
:10386000730B6333710590F00E944A0E60931C083D
:1038700070931D0880931E0890931F08E0916501C6
:10388000F0916601309721F0099502C0112369F18A
:10389000E0916301F0916401309719F00995882354
:1038A00021F58091EB042091E9049091EC04E82F3C
:1038B000FF2402C0E91BF394E21720F0222311F049
:1038C0009923C1F7F0E0EE0FFF1FEE0FFF1FE75D3A
:1038D000FB4F108101810E944B17282F812F6F2DE4
:1038E000402F0091F5040E947C1A8091FB04909176
:1038F000FC048150891B8F73843008F494C090912C
:1039000024088091C607981738F4809118088F5FB3
:10391000809318081092F406809124088093C607BB
:103920009091D40780911A08981739F4809118085B
:1039300081FF03C010912F0117C02091F4062223AC
:1039400071F0992311F0973051F4E92FF0E0EA5C1F
:10395000F74F8081803219F4122F115005C0E92FE2
:10396000F0E0EA5CF74F1081292F30E0F901E25DC9
:10397000F74F80811817F1F18091170890E00196B8
:103980002817390721F480912608882339F52091DA
:103990002508309126088091FB049091FC04815009
:1039A000891B8F738230D0F02295220F220F207C4A
:1039B0003068232B3091FC04E32FF0E0EA57F84FF6
:1039C000822F90E074E0959587957A95E1F7808352
:1039D0002F7021833E5F3F733093FC04812F0E9440
:1039E0003B198091D407E82FF0E0E25DF74F108398
:1039F00080931708909126089F5F909326088091E6
:103A0000D4078F5F8093D407983069F4109226080A
:103A1000809125088F5F80932508813021F41092D2
:103A200025081092D407CDB7DEB7E6E00C94953B9D
:103A30000F931F93CF93DF9383B190E09695879573
:103A400096958795817020917507220F282B2093DA
:103A5000750783B190E096958795817090911B08CA
:103A6000990F982B90931B08203829F4892F807F79
:103A700011F431E007C0903821F4207F11F43FEFBA
:103A800001C030E093B1917080911908880F892BA3
:103A900080931908332391F021E0222F2295207F73
:103AA0008091FA04E82FF0E0EE0FFF1FE05CF74F83
:103AB000208331838F5F8F718093FA04189914C02B
:103AC000D0C022E0222F2295207F9091FA04E92F86
:103AD000F0E0EE0FFF1FE05CF74F20838FEF818354
:103AE0009F5F9F719093FA04809119088F3701F5B9
:103AF0000091F7041091F8040E94EE3480179107AA
:103B000098F022E0222F2295207F9091FA04E92F4D
:103B1000F0E0EE0FFF1FE05CF74F208381E0818330
:103B20009F5F9F719093FA041092F8041092F7042B
:103B30008091F604882309F466C050918008409172
:103B40003F08A42FB0E0FD01EE0FFF1FEA58F84F29
:103B500020813181CD0113E0880F991F1A95E1F77B
:103B6000850FC82FD0E0FE01EA52F84FE081809126
:103B70007A0086FDFCCF86C010923F08852F8F5FAC
:103B800080938008883011F41092800820913F08BB
:103B9000822F877090910001892B80937C00809107
:103BA0007A00806480937A00222311F437E002C007
:103BB000322F3150832F90E0FC01EE0FFF1FEA58A7
:103BC000F84F40815181E4E056954795EA95E1F739
:103BD000FC01E351FB4F80818417A9F0408320E072
:103BE000222F2295207F3F70232B8091FA04E82F0B
:103BF000F0E0EE0FFF1FE05CF74F208341838F5F03
:103C00008F718093FA04809124088F5F8093240839
:103C10008091D507882329F05B985A981092D50790
:103C200048C08091FC049091FB04891B8F7309F4B8
:103C300040C081E08093D5078091FB04E82FF0E03D
:103C4000EA57F84FE0818F5F8F738093FB04E4FDA8
:103C50005A9A8BB1E295E07F8F70E82BEBB95B9AB3
:103C600028C00091F7041091F8040F5F1F4F1093C4
:103C7000F8040093F7040E94EE348017910708F4CB
:103C800020CF32CF80917900CA52D84F8883AA0FB3
:103C9000BB1FAA58B84F280F311D2E1B31092D9379
:103CA0003C93842F8F5F80933F08883009F06ECF5C
:103CB00063CFDF91CF911F910F910895A9E3B5E0F4
:103CC00093E12C91281741F0E92FFF27E7FDF095AC
:103CD000EA5DFA4F20839150119725E0A532B20793
:103CE00081F711968C9308951F93382F2091250505
:103CF000EDEFF4E01FEF90E006C08081831709F438
:103D0000192F9F5F32969217C0F31F3F51F0E12F9A
:103D1000F0E0EE0FFF1FE350FB4F1182812F0E9456
:103D20005E1E812F1F9108951F93382F2091250526
:103D3000222311F41FEF41C0ADEFB4E0E0E005C075
:103D40008C911296831721F0EF5FE217C8F302C03F
:103D5000EF3FB1F4A6E2B5E09FEF1C91121740F4DB
:103D6000E12FF0E0EE0FFF1FE350FB4F8181811147
:103D7000192F119685E0AA33B80719F0912FEDCFCE
:103D80001E2F1F3F71F4E6E2F5E08081821708F0F4
:103D9000812F319695E0EA33F90711F0182FF5CF0E
:103DA000182FE12FF0E0EE0FFF1FE350FB4F3083A1
:103DB00081E08183812F0E945E1E812F1F910895D3
:103DC000089588E2EDEFF4E0DF011D928A95E9F7AE
:103DD000E6E2F5E083E181938150E8F70895809170
:103DE0003A0580933B05882319F481E080933B05D5
:103DF00008951F9310913B05180F10933B05112355
:103E000011F481E00CC00E94B40E212F30E090E04C
:103E10000396821793072CF40E94B40E8D5F809353
:103E20003B0581E01F9108950F931F930E94A819ED
:103E300010913B050E94B40E181750F000913B05FD
:103E400010E00E94B40EF8017896E81BF10908C052
:103E500080913B050E94410F80917501E82FF0E0B1
:103E6000EE0FFF1FE757FF4F6591749182EA91E0D3
:103E700048E050E00E94993A80E00E94410F82EAB7
:103E800091E068E00E94000E0E94501881E01F91AE
:103E90000F9108950F931F9310913B050E94B40E4C
:103EA000181789F400E00DC0802F8068612F40E072
:103EB0000E94E70E1F5F1038B9F70F5F003109F459
:103EC0003FC010E0F1CF00913B0510E00E94B40E1E
:103ED00090E001960817190731F480E090E060E067
:103EE0000E94981520C000913B0510E00E94B40E7E
:103EF00090E002960817190791F411E006C0812F8F
:103F00000E94410F0E94900F1F5F0E94B40E18176D
:103F1000B0F380E00E94410F10923A0504C08091F6
:103F20003B0580933A050E94810F2CE088E190E0E8
:103F30000FB6F894A895809360000FBE20936000A0
:103F400081E01F910F9108950E94820E0895282FFD
:103F500080913D05813089F510923C0530E02F714C
:103F60003070C901880F991F820F931F880F991F06
:103F7000382F2091480590E0622F70E00E94243B8A
:103F8000882329F42150209349052F5F03C08150D5
:103F900080934905832F90E0622F70E00E94243BBC
:103FA0006F70707081E090E002C0880F991F6A9571
:103FB000E2F790934C0580934B05089580913D0561
:103FC000813011F480933C05089581E090E0909356
:103FD0004C0580934B05809148058150809349059D
:103FE00080914205813011F081E001C08FEF809314
:103FF0004D058FE780934E051092510508951F934C
:1040000010913D05113021F40E94E51F10933C05ED
:104010001F91089580914D05813029F410924E052D
:1040200010924F05089580917703815080934F053A
:1040300080914305815080934E0508951F936091B0
:104040004E056F3709F47AC01091770370914205DD
:104050007330D9F52091010130910201C9018170BD
:104060009070909581959F4F8070947B36952795A1
:10407000822793279093020180930101792F7295F3
:104080007F7080914305482F50E0682F6195292F5C
:104090002F70322F260F832F992787FD9095841735
:1040A0009507BCF730934E05612F6195472F542F2C
:1040B000460F252F332727FD3095812F90E02817B5
:1040C0003907ACF750934F053BC050914D054091D7
:1040D0004F05450F40934F05242F332727FD30957B
:1040E000812F90E0281739071CF010924F0506C069
:1040F00047FF26C0115010934F051F5F462F450FF5
:1041000040934E05242F332727FD3095809143059A
:1041100090E02817390714F447FF12C0723071F489
:10412000519550934D050E940A20123008F087CF18
:1041300080914305823008F082CF02C00E940A209D
:104140001F9108951F93142F90914105891761F4D1
:10415000603451F480915005882321F0442311F4F8
:104160000E94FB14109350051F9108950F931F9305
:10417000182F062FE82FF0E0E35CFA4F60838430BD
:1041800050F480913E0590E060E040913F05209121
:1041900040050E94A10FE0914505F0E0E858FF4F6F
:1041A000E491E0934805153061F480914205813037
:1041B00011F081E001C08FEF80934D050E940A202D
:1041C00008C01A3031F4002321F40E94FB1410922D
:1041D00051051F910F91089580913D05813031F473
:1041E00010923C05809141050E94320F08950F9373
:1041F0001F93809149058F5F8093490580917703D4
:10420000882311F010924A0580914A058F5F8093B0
:104210004A05803680F080E680934A0580913D050E
:10422000882349F410923C058CEF0E94820E809105
:1042300041050E94320F809141050E94FE0E90912F
:10424000490580914805981708F46FC010924905F8
:1042500080914405E82FF0E0EE0FFF1FED56FD4F73
:104260008591949120914B0530914C0582239323A5
:10427000892B11F490E001C09FEF80917703882390
:1042800009F441C0992309F43EC00E941E20E09128
:104290004F05F0E0E455FC4F808190E0FC01EE0F0B
:1042A000FF1FE80FF91FE858FC4F10810181809132
:1042B0004E052CE08202C0011124180F01C01C50D1
:1042C00017FDFDCF812F60E00E943910882339F05F
:1042D000809141058068612F40E00E94E70E809147
:1042E00041058069612F402F0E94E70EE09146054D
:1042F000F0E0E858FF4FE491E150812F60E04E2F4D
:1043000020E00E943E0F80914B0590914C05880F54
:10431000991F90934C0580934B05892B31F481E0D4
:1043200090E090934C0580934B051F910F91089559
:1043300080913D05882349F480913C05882329F02C
:1043400088EF0E94820E0E94F720089580913D051B
:10435000813031F480913C05882311F00E94F720D0
:104360000895909141058917D9F4809150058823CB
:10437000B9F480914705882321F4862F0E942E14DA
:1043800008958091AB0390E0FC01EE0FFF1FE80F52
:10439000F91FE858FC4F8081681711F410925105FD
:1043A0000895FF920F931F93062FF42E90914105CD
:1043B0008917C9F580913D05882321F580914A052B
:1043C0008036F0F010927A0110927B0110927C01FD
:1043D00010927D0111E0109379011092A0011092CA
:1043E000A10180917E0190917F0190939F01809324
:1043F0009E010E94E51F10933C058AEF0E94820EE9
:1044000010924A0580914705882349F08091510513
:10441000882329F40E94FB1481E080935105802FAA
:104420006F2D0E9486141F910F91FF900895282FE1
:10443000FB0190914105892F8068281771F0892F21
:104440008069281751F0906B291719F48081803406
:1044500021F0822FBF010E94CB0E08950E94811788
:104460008AE261E040E02FE00E945B1785E766E7A3
:1044700040E023E00E945B178AE760E041E024E02F
:104480000E945B1785E561E040E027E10E945B1731
:104490008DE761E840E020E10E945B178BE761E86F
:1044A00040E020E10E945B178CE76FE240E021E0F2
:1044B0000E945B1780913E0590E060E040913F05CF
:1044C000209140050E94A10F88E0609145050E945F
:1044D000B62010927A0110927B0110927C0110920A
:1044E0007D0181E0809379011092A0011092A101D9
:1044F00080917E0190917F0190939F0180939E0116
:1045000080E680934A0510923C0510925005109267
:10451000510508952091520530915305409154055D
:1045200050915505211531054105510541F4109271
:104530007A0110927B0110927C0110927D01809192
:104540007A0190917B01A0917C01B0917D018093D3
:10455000560590935705A0935805B09359052F5FC2
:104560003F4F4F4F5F4F2093520530935305409379
:104570005405509355050895109252051092530515
:104580001092540510925505109256051092570539
:10459000109258051092590510927A0110927B01E1
:1045A00010927C0110927D01089510925205109294
:1045B000530510925405109255051092560510920D
:1045C0005705109258051092590510927A011092D1
:1045D0007B0110927C0110927D010895109252058A
:1045E00010925305109254051092550510925605DD
:1045F00010925705109258051092590510927A01A1
:1046000010927B0110927C0110927D01089510920E
:1046100052051092530510925405109255051092B0
:104620005605109257051092580510925905109290
:104630007A0110927B0110927C0110927D0181E041
:104640000895A0E0B0E0E7E2F3E20C94753B6B0163
:104650007C01A42EE901442309F43FC061157105D2
:104660008105910529F4F90180E38193415033C01C
:10467000BB240B2D10E00F57174FC701B6012AE0DE
:1046800030E040E050E00E944B3BF8016083B3947F
:10469000C701B6012AE030E040E050E00E944B3B09
:1046A000C901DA016C017D01C114D104E104F104F6
:1046B00001F74B2DDE0108C0BA94EB2DF0E0EF5767
:1046C000F74F8081805D8D93BB20B1F7FE01E40F31
:1046D000F11DA41A4A2D41111082CDB7DEB7EAE0D0
:1046E0000C94913B882379F090915A05980F909300
:1046F0005A05913818F010925A0505C0933018F0F9
:1047000082E080935A0581E080935B050E945018F7
:1047100081E00895EF92FF920F931F9380915A05C5
:10472000813011F082E601C082E48093A2016091A1
:10473000520570915305809154059091550561156E
:1047400071058105910521F06150704080409040D5
:10475000E0905605F09057050091580510915905C5
:1047600008C0969587957795679516950795F79460
:10477000E794673222E0720720E0820720E0920788
:1047800080F7E114F1040105110551F481E0E82EF0
:10479000F12C012D112D60E070E080E090E006C06A
:1047A00024E935E347E750E00E94EC3AA80197017D
:1047B0000E944B3BCA01B90146E024EA31E00E9465
:1047C000212384EA91E066E00E94460E8091A801D0
:1047D000803219F480E38093A801E3EAF1E081815B
:1047E000819381E0E83AF807D1F78EE280831F9148
:1047F0000F91FF90EF90089590915A05923008F034
:104800004AC080915B05882311F4913001F50E9424
:104810008A230E94501880915A058823C1F410926F
:10482000520510925305109254051092550510929E
:10483000560510925705109258051092590510927E
:104840007A0110927B0110927C0110927D0180917F
:104850005A058823E1F480917A0190917B01A0911F
:104860007C01B0917D0181539547A040B04078F024
:1048700020E08091520590915305A0915405B0918C
:104880005505C197A105B10518F021E001C020E050
:1048900020935B0517C084E78093A20160915205C5
:1048A00070915305809154059091550547E023EA96
:1048B00031E00E94212383EA91E067E00E94460EE6
:1048C0000E94501881E008951F93182F0E94820EB5
:1048D0001F3FC1F4109252051092530510925405D7
:1048E00010925505109256051092570510925805D2
:1048F0001092590510927A0110927B0110927C015E
:1049000010927D011F91089582E19AE760E040E0F6
:1049100020E00E94A10F10925A0581E080935B0570
:104920000E94501808958823B1F480915C05482FA7
:1049300050E080916005282F30E0609161054217BA
:1049400053073CF0862F90E09C01421753070CF46C
:104950009A01822F0895E82FF0E0E45AFA4F8081FF
:104960000895A0915C05E82FF0E0E45AFA4F6083C7
:1049700070915E057723A9F48091600587FF03C0DD
:104980008FE7809360058091610587FF03C08FE703
:104990008093610580915F0587FF03C08FE7809357
:1049A0005F0580915C05482F50E080916005282FBD
:1049B00030E060916105421753073CF0862F90E08C
:1049C0009C01421753070CF49A01922F20935C0527
:1049D0002A1799F140915F0580915D05772341F495
:1049E0004F779F77806B642F492F0E94E70E0895C1
:1049F000441F4427441F806B63E60E94E70E8091AA
:104A00005D0540915F054F77806B62E60E94E70E7F
:104A100090915D05906B40E080915C0587FD41E0E1
:104A2000892F66E00E94E70E80915D0540915C054C
:104A30004F77806B66E20E94E70E08950E94CB0ECE
:104A4000089588E460E040E02FE70E945B178AE267
:104A500061E040E02FE00E945B178AE46BE440E0F5
:104A600021E00E945B1789E460E040E02FEF0E94A4
:104A70005B178DE460E040E02FEF0E945B178EE44F
:104A800060E040E02FEF0E945B170895DF92EF9205
:104A9000FF920F931F93D82E062FF42EE22E8091B3
:104AA0006305882311F010E025C0862F8D29642F1F
:104AB000422F0E94E70E22C06F2D70E080916405A6
:104AC000681B7109E12FF0E0EC59FA4F8081680F03
:104AD000711D02C0645F7F4F77FDFCCF02C06C5038
:104AE000704060387105DCF7802F8D294E2D0E94B3
:104AF000E70E1F5F809163051817F0F21F910F9169
:104B0000FF90EF90DF900895582F762FE42F20919B
:104B10006205222331F030E090E001962817390732
:104B200021F48091F504882339F0852F806A672F5E
:104B30004E2F0E94E70E089580EA652F472F2E2FF3
:104B40000E9446250895582F762FE42F2091620564
:104B5000222331F030E090E001962817390721F444
:104B60008091F504882339F0852F8068672F4E2FB8
:104B70000E94E70E089580E8652F472F2E2F0E9490
:104B800046250895582F762FA42F209162052223C1
:104B900031F030E090E0019628173907D9F4809180
:104BA000F5048823F1F080916305E82FF0E0EC59DB
:104BB000FA4F70838F5F809363058A3059F4E5E67E
:104BC000F5E08181819385E0ED36F807D1F789E042
:104BD00080936305852F8069672F4A2F0E94E70E17
:104BE000089580E9652F472F2A2F0E9446250895B2
:104BF0008091F504882319F41092630502C00E9485
:104C0000810F80E00895982F907F903831F090398F
:104C100021F0903A11F00E94CB0E08958AE263E0F1
:104C200040E020E10E945B170895282F883F59F447
:104C300080916F058F5F80936F0590916E05891746
:104C400028F010926F05822F0E94820E08958DE742
:104C500060E041E020E20E945B170895843009F48F
:104C600081E0E82FF0E0E059FA4F8081089510923A
:104C7000740580E008951F93809170058823E1F406
:104C800010927A0110927B0110927C0110927D01AA
:104C900011E0109379011092A0011092A10180916E
:104CA0007E0190917F0190939F0180939E018AEFF6
:104CB0000E94820E109370051F9108950E943B265A
:104CC00008950E943B26089580917005882339F04D
:104CD000109279018CEF0E94820E10927005089557
:104CE0000E946426089588EF0E94820E0895282F5E
:104CF000873F19F090E0803F09F491E0822F807F98
:104D0000803F11F4992319F0822F0E94820E08959A
:104D10000F931F93182F062F882341F4613019F445
:104D20000E943B2606C00E94642603C0843009F41A
:104D300011E0E12FF0E0E059FA4F00838091710516
:104D400090E060E040917205209173050E94A10FF0
:104D50001F910F910895EF92FF920F931F938091EF
:104D6000EB04843011F080E05DC020917A01309135
:104D70007B0140917C0150917D0110927A0110924B
:104D80007B0110927C0110927D0160917405662375
:104D9000C9F120388AE1380786E0480780E05807E3
:104DA00088F5E0907505F0907605009177051091F3
:104DB0007805E20EF31E041F151FE0927505F092B0
:104DC0007605009377051093780570E080E090E019
:104DD00020E33AE14EE151E00E94EC3AA80197014C
:104DE0000E944B3B283231051CF428E230E005C01C
:104DF000213F310514F020EF30E081E0622F0E9466
:104E000088260AC0109274051092750510927605D6
:104E10001092770510927805809174058F5F8093CA
:104E2000740581E01F910F91FF90EF9008958DE33D
:104E30006FE240E021E00E945B178EE360E048E211
:104E400020EF0E945B178FE362E440E025E00E94C0
:104E50005B1780E460E040E02FE70E945B1781E48D
:104E600060E048E220EF0E945B178091710590E0BE
:104E700060E040917205209173050E94A10F10928D
:104E800070051092740508951F93142FB82FB07FEA
:104E9000B03F79F1F82FFF70E0917905FE1710F41B
:104EA000A0E00DC0A0E08F2F90E040917A052E2F5A
:104EB00030E0240F311D821793070CF4A1E04F2F2F
:104EC00050E0405F5F4F2E2F30E04217530714F43D
:104ED00090E009C090E080917A05280F311D4217BB
:104EE00053070CF491E09A2B11F0F0917B058F2F72
:104EF0008B2B412F0E94CB0E1F91089586E661E017
:104F000040E02FE00E945B1789E460E041E020E18F
:104F10000E945B1787E661E040E02FE00E945B178C
:104F20000895462F90917C05EDE7F5E0E80FF11D1F
:104F3000892F806B60810E94E70E08950E94CB0E3E
:104F400008951F9381E08093F6048AE261E040E0D7
:104F50002FE00E945B171EE5812F60E040E02FE705
:104F60000E945B171F5F1636B9F71F910895809155
:104F70008605813011F4809385050895809186051A
:104F8000813011F4809385050895809186058130E4
:104F900011F41092850508950F931F93182F062F73
:104FA000E82FF0E0EA57FA4F6083843088F480916C
:104FB000870590E060E040918805209189050E9476
:104FC000A10F112329F4002319F48CEF0E94820E03
:104FD000E0918D05F0E0ED52F84EE491E0939005FC
:104FE0001F910F910895DF92EF92FF920F931F93FD
:104FF000A82FD62EF42E442309F455C050918C05C9
:10500000541B57FD50E0E0918B05F0E0E858FF4F4E
:10501000E4910E2F10E060918F05762F770F40E01E
:105020000CC099277102C001700300249009810D02
:10503000901D1124080F191F4F5F242F30E0852F7A
:10504000992787FD90952817390714F4662349F7A7
:10505000209190053D2D329FE12C11248A2F6091E3
:105060008E050E942115101611061CF001E010E0BB
:1050700006C00F3F110519F014F00FEF10E06D2D71
:10508000D11061E09E2DE61608F4962FFA94692F50
:10509000402F2F2D0E943E0F8091AB01823518F0DA
:1050A00082E28093F4061F910F91FF90EF90DF90C2
:1050B000089590918A05891731F4862F60E0409118
:1050C0008C050E94F327089590918A05891731F481
:1050D000862F642F40918C050E94F3270895CF936B
:1050E000DF93E0916E0333C0CE2FD0E0FE01EE0FD0
:1050F000FF1FEE0FFF1FEC0FFD1FE455FE4F8281D7
:10510000882339F560816E3FC1F0418180918A0525
:10511000442311F4806801C080690E94E70EFE01FB
:10512000EE0FFF1FEE0FFF1FEC0FFD1FE455FE4FAC
:105130008081618144810E94F327FE01EE0FFF1FF1
:10514000EE0FFF1FEC0FFD1FE455FE4FE381EE2332
:1051500059F60E940210DF91CF9108958091860543
:10516000882329F488EF0E94820E0E946F280895F8
:1051700080918605813031F480918505882311F076
:105180000E946F2808950E94CB0E08950E948117F7
:105190008AE261E040E02FE00E945B1782E161E873
:1051A00040E02CE00E945B1782E960E040E020E2F2
:1051B0000E945B178DE661E040E02FE00E945B17E4
:1051C00083E964E048EE28E10E945B1784E964E02B
:1051D00041EC2FE30E945B178091870590E060E02F
:1051E00040918805209189050E94A10F85E060917A
:1051F0008B050E94CC2710927A0110927B011092AD
:105200007C0110927D0181E0809379011092A001D0
:105210001092A10180917E0190917F0190939F0156
:1052200080939E01109285050895CF93DF939C0192
:10523000EC01DC01E0E08C91861729F0EF5F12961B
:10524000E032C9F703C0EF3F51F408C0E0E08881C5
:105250008F3F29F0EF5F2296E032C9F7E0E0F0E0FF
:10526000EE0FFF1FE20FF31F60834183DF91CF91A9
:105270000895EF92FF920F931F93CF93DF93082F20
:10528000E22EEDEBF3E0C0E0D0E0F080F41651F454
:10529000FE01EE0FFF1FE354FC4F91819F3FB9F4D5
:1052A00010E010C021963296C032D10571F721C0AE
:1052B00080919305810F8F70802B6F2D4E2D0E9452
:1052C000E70E1F5F80919405181790F30AC0809134
:1052D0009305980F9F70892F802B642F4E2D0E946D
:1052E000E70E003831F4CC0FDD1FC354DC4F8FEFD5
:1052F0008883CDB7DEB7E6E00C94953B982F362F28
:10530000242F80919105981729F480EA692F432F63
:105310000E9439290895FF920F931F93182F062F8B
:10532000F42E80919105181749F4862F0E94741E5F
:1053300080E8612F402F2F2D0E9439291F910F9156
:10534000FF900895FF920F931F93082F162FF42EAE
:1053500080919105081709F05DC080919205823017
:1053600039F1833030F4882351F0813009F04CC09A
:1053700017C08330D1F1843009F046C03AC0809123
:1053800095058F5F8093950590919405891710F08E
:10539000109295058DEB93E0612F4091950532C0F9
:1053A0008091940580932505862F0E94941E1BC032
:1053B0002091010130910201C90181709070909596
:1053C00081959F4F8070947B3695279582279327F0
:1053D000909302018093010160919405892F90E0E0
:1053E00070E00E94243B482F0AC08DEB93E04FEF02
:1053F00009C0440F20919405429F412D11248DEB4B
:1054000093E0612F0E94152980E9602F412F2F2DF5
:105410000E9439291F910F91FF900895FF920F93D9
:105420001F93CF93DF93282FEB01F42E082F007FDB
:10543000003F31F0982F9F7080919105981731F0BF
:10544000822FBE014F2D0E94CB0E16C00038A1F056
:10545000003991F0003A81F010E00AC08091930584
:10546000810F8F70802BBE014F2D0E94CB0E1F5FCE
:1054700080919405181790F3CDB7DEB7E5E00C9452
:10548000963B109225050E94E11E86E661E040E011
:105490002FE00E945B1784E560E740E024E00E9473
:1054A0005B1787E661E040E02FE00E945B1789E42C
:1054B00060E041E020E10E945B171092950508959D
:1054C00080919805813011F480939605089580911C
:1054D0009805813061F4809396051092BF0581E0B4
:1054E00090E09093C1058093C0051092A1050895A6
:1054F000E82FF0E0E956FA4F6083853050F4809150
:10550000990590E060E040919A0520919B050E94EA
:10551000A10F08950F931F93CF93DF93C3EAD5E0B4
:105520000DE915E08881882349F080919C05806809
:10553000F801608140E00E94E70E188221960F5F1B
:105540001F4FF5E0C73ADF0769F7DF91CF911F9151
:105550000F91089580919805813011F4109296056D
:105560000E948A2A0895EF92FF920F931F93082FAB
:1055700010E080919C059DE9E92E95E0F92EE00E62
:10558000F11E8069F701608144E60E94E70E0D5527
:105590001A4FF7018081F80180831F910F91FF90CE
:1055A000EF900895A0E0B0E0E8EDFAE20C94773BCC
:1055B00080919605882309F4BEC08091A1058F5F74
:1055C0008093A1058091A2058F5F8093A20580360C
:1055D00070F080E68093A20580919805882339F4C5
:1055E000109296050E948A2A8CEF0E94820E80916A
:1055F000A105863009F09BC01092A1058091970506
:10560000882309F03FC010E0C0E0D0E04C2FFE013D
:10561000E554FA4FE081EE2311F01092A205E10F5C
:10562000F0E0EE0FFF1FED53FD4F85919491209117
:10563000C0053091C10582239323892B19F0842F53
:105640000E94B32A2196143211F0145FDFCF20910B
:10565000BF052F5F2093BF058091C0059091C105C4
:10566000880F991F9093C1058093C005203109F0E0
:1056700062C01092BF0581E090E09093C1058093D5
:10568000C00559C06FEAE62E65E0F62EC3EBD5E003
:105690005BEAC52E55E0D52E00E010E0F801E95593
:1056A000FA4FE081EE23C9F01092A205D6018C9149
:1056B0002CE0829FC0011124E80FF0E0EE0FFF1FE5
:1056C000ED51FC4F85919491288139818223932358
:1056D000892B19F0802F0E94B32AF70120812F5FB8
:1056E000208388819981880F991F99838883D601A7
:1056F000EC91F0E0EF58F74EE49130E08E2F90E01F
:105700002817390731F4F701108281E090E099837E
:1057100088830F5F1F4F0894E11CF11C22960894A8
:10572000C11CD11C0430110509F0B8CF04C083306E
:1057300011F40E948A2ACDB7DEB7E8E00C94933BBF
:1057400080919805813031F480919605882311F07D
:105750000E94D22A089580919805882349F4809167
:105760009605882329F088EF0E94820E0E94D22A93
:10577000089590919C05891719F4862F0E942E1484
:1057800008950F931F93162F042F90919C0589174E
:1057900009F09AC080919805882361F58091A2054F
:1057A000803630F110927A0110927B0110927C01C8
:1057B00010927D0181E0809379011092A0011092F6
:1057C000A10120917E0130917F0130939F012093B0
:1057D0009E011092BF0521E030E03093C105209377
:1057E000C0051092A105809396058AEF0E94820E53
:1057F0001092A205812F602F0E9486148091970538
:10580000882319F00FEF10E05BC010E01FC0E12FFC
:10581000F0E0E455FC4F808190E0FC01EE0FFF1FAB
:10582000E80FF91FE858FC4F80810E941B15873054
:1058300010F083E005C0843010F480E001C0835094
:10584000E82FF0E0E554FA4F90831F5F80917703D3
:105850001817E8F239C0E12FF0E0E455FC4F8081E1
:1058600090E0FC01EE0FFF1FE80FF91FE858FC4F16
:1058700080810E941B15282F873010F0E3E006C0BE
:10588000843010F4E0E002C0E82FE350AE2FB0E027
:10589000201721F4A555BA4F9C9310C0FD01E9557E
:1058A000FA4F9083FD01E155FA4F1082AA0FBB1FFA
:1058B000AD54BA4F81E090E08D939C931F5F022F0F
:1058C00080917703181738F21F910F910895282FB0
:1058D00090919C05892F8068281731F090692917CD
:1058E00019F0822F0E94CB0E08951F9384E565E581
:1058F00040E021E00E945B170E9481178AE261E08C
:1059000040E02FE00E945B171AE5812F62E044E13E
:105910002CE60E945B171F5F1E35B9F78091990531
:1059200090E060E040919A0520919B050E94A10FB4
:1059300010927A0110927B0110927C0110927D01ED
:1059400081E0809379011092A0011092A1018091D1
:105950007E0190917F0190939F0180939E01109210
:10596000BB051092BC051092BD051092BE0520E04B
:1059700030E0F901E955FA4F1082F901E555FA4F87
:105980008BE080832F5F3F4F2430310591F780E615
:105990008093A205109296051F910895982F807FFD
:1059A000803F21F4892F0E94CB0E0895E92FF0E06B
:1059B000EF70F070EE53FA4F8081882319F0892F31
:1059C0000E94CB0E0895FF920F931F9384E00E94D4
:1059D0001A1988E00E941A19FF2412C00F2D10E036
:1059E0000155184FF8010491802F82958F708061C6
:1059F0000E941A190F70802F80610E941A19F39467
:105A0000F8E3FF1659F785E06FE240E021E000E19E
:105A10000E94E3171F910F91FF900895CF93DF939A
:105A2000EC01722FE62FF0E0CF01807F9070803F75
:105A3000910581F494E0F595E7959A95E1F738970B
:105A400081E090E002C0880F991FEA95E2F79A8101
:105A500098233EC06F70A1E0B0E09D0102C0220F0C
:105A6000331F6A95E2F78881822381F184E0F595FE
:105A7000E7958A95E1F7389702C0AA0FBB1FEA9510
:105A8000E2F78A818A2311F150E08B81992787FD03
:105A9000909548175907D4F08C81992787FD9095E8
:105AA000841795079CF0472F50E08D81992787FD3B
:105AB00090954817590754F030E08E81992787FD5B
:105AC0009095841795071CF031E001C030E0932FCA
:105AD000892FDF91CF9108952F923F925F926F921D
